:020000040000FA
:10000000B805002001010000050100000701000003
:10001000090100000B0100000D01000000000000BC
:100020000000000000000000000000000F010000C0
:100030001101000000000000130100005702000041
:100040001701000017010000170100001701000050
:100050001701000017010000170100001701000040
:100060001701000017010000170100001701000030
:100070001701000017010000170100001701000020
:100080001701000017010000170100001701000010
:100090001701000017010000170100001701000000
:1000A00017010000170100001701000017010000F0
:1000B00017010000170100001701000017010000E0
:1000C00017010000170100001701000017010000D0
:1000D00017010000170100001701000017010000C0
:1000E00017010000170100001701000017010000B0
:1000F00017010000170100001701000017010000A0
:1001000000F00AB8FEE7FEE7FEE7FEE7FEE7FEE7DF
:10011000FEE7FEE7FEE7FEE7DFF80CD000F07EFA30
:1001200000480047D1050000B80500200138FDD186
:100130007047000072B6704762B67047EFF31080E8
:1001400072B6704780F31088704730BF7047000068
:100150000F49096841F008010E4AC2F808110C491C
:1001600008680D49096841F00F010B4A11600B49FD
:10017000096821F00F01094A11600949096841F035
:100180000F01074A116070470649C86370470000B5
:1001900008E10F4000E00F40007400402074004070
:1001A0001C750040007000401E48006E40F4006066
:1001B0001C4908660846006E20F480000866084660
:1001C000006E20F4707008660846006E00F56070DE
:1001D00008660846006E20F0300008660846006E8B
:1001E00008660846006E20F4405008660846006E17
:1001F00020F0F06008660846006E00F1C0700866E6
:100200000846006E40F48000086600BF0548006D97
:1002100010F0400FFAD00348006E20F4006001494E
:100220000866704700E00F4000216F4A11604FF0F0
:10023000E0221161411E5161002191616B49096801
:1002400021F07F4141F08041684A116007214FF061
:10025000E0221161704710B56548006880F0080021
:100260006449C1F8FC036448D0F8FC0380F0040042
:10027000624908606249634A1268885CFFF784FF3C
:1002800060480068401C642190FBF1F201FB120001
:100290005C49086054480068401C5349086010BD20
:1002A00010B5FFF755FFFFF77FFF10BD30B50546CE
:1002B0002846632D39D014DC462845D008DCA0F14F
:1002C000410005285DD2DFE800F021272D333900F9
:1002D00047283FD0532852D061281AD0622850D1E5
:1002E0001DE0762848D008DC642824D0652828D072
:1002F00066282CD0672844D12FE0772839D0782879
:1003000034D079282FD07A283BD129E03E480368A1
:1003100039E03D48436836E03B48836833E03A487B
:10032000C36830E0384803692DE0374843692AE064
:100330003548836927E03448C36924E03248036ABA
:1003400021E03148436A1EE02F48836A1BE02E48B3
:10035000C36A18E02C48036B15E02B48436B12E08E
:100360002948836B0FE02848C36B0CE02648036CD8
:1003700009E02548436C06E02348836C03E0002332
:1003800001E0002300BF00BF43B16420584300EBED
:10039000800080001D4991FBF0F400E0002420461D
:1003A000FFF742FF30BD1A49096841F04001194A80
:1003B000C2F80811164908681749096841F0040194
:1003C000154A11601146096821F0080111601349AE
:1003D000096821F00C01114A11601149096841F0C6
:1003E0000C010F4A116070470000002020ED00E072
:1003F000FC4302400040024000600240FC630240B7
:10040000F4070000040000205808000000CA9A3BCE
:1004100008E10F4000E00F40006402402064024009
:100420001C6502401F49096841F010011E4AC2F8CC
:1004300008111C4908681D49096821F007011B4A79
:1004400011601146096841F00801116018490968F6
:1004500021F00F01164A11601649096841F00F0199
:10046000144A116070471448006841B201F0070156
:10047000042901D141207047022901D14220FAE725
:10048000012901D14320F6E7062901D15A20F2E7DC
:10049000032901D15920EEE7072901D15320EAE7CA
:1004A0000020E8E708E10F4000E00F400044024070
:1004B000204402401C450240FC4302402DE9F0412B
:1004C000412423E03D4D07E0BC4203D02046FFF726
:1004D000EDFE27466D1E00BF002DF5DC601C44B20A
:1004E000FFF7C1FF0646532E08D1354D3046FFF7C2
:1004F000DDFE00E06D1E002DFCDC09E001E0601C6B
:1005000044B2472C01DD612CF9DB00BF672CD9DD3B
:1005100000BFBDE8F0812DE9F0414FF056080025FD
:100520002848475723E03846FFF7C0FE264951F8D0
:100530002510264A01FB02F0C11700EB5171CC10C7
:1005400002E0641E641C641E002CFADC6D1C1D4855
:100550004757FFF788FF0646532E08D1184C304600
:10056000FFF7A4FE00E0641E002CFCDC01E0572D28
:10057000D9D100BFBDE8F0812DE9F04141254226E7
:1005800000244FF4FA6407E0BD4203D02846FFF789
:100590008DFE2F46641E00BF002CF5DC4FF4FA647C
:1005A00007E0BE4203D03046FFF780FE3746641EA8
:1005B00000BF002CF5DCBDE8F0810000404B4C0092
:1005C00000127A000800002060000020C0CF6A00FE
:1005D000FFF766FE104800F061F8FFF7E4FEFFF752
:1005E000ABFDFFF71FFFFFF796FF13E0FFF73BFFA1
:1005F0000446AC420DD05A2C02D1FFF78CFF08E024
:10060000592C02D1FFF75AFF03E02046FFF74EFEB8
:10061000254600BFEAE700008003C001064C074DF5
:1006200006E0E06840F0010394E8070098471034C2
:10063000AC42F6D3FFF774FDA4080000C408000024
:1006400070B501EB020410F8015B15F0070301D14E
:1006500010F8013B2A1106D110F8012B03E010F825
:10066000016B01F8016B5B1EF9D12B0705D4002348
:10067000521E0FD401F8013BFAE710F8013B02F1DA
:100680000202A1EB030303E013F8015B01F8015B35
:10069000521EF9D5A142D6D3002070BD2DE9F041FC
:1006A000464F0446386810F0E04F05D0386844499A
:1006B0000840B0F1805F04D114F0004F18BFBDE8CE
:1006C000F081396E386F21F4800141F4006540F407
:1006D00000663D663E6715F0020F02D014F0020F6F
:1006E00004D025EA040010F0010F19D064F00300D3
:1006F00005403D6616F0004F08D006F07000302827
:100700001CBF702030EA060006D102E03020A8436A
:1007100002D14FF4805001E04FF40020FFF706FDB6
:1007200025F4FE6043F2F07120F44050214041EA8C
:1007300000082448244930402140084304F00801BF
:1007400040EAC1054020B86515F0004F18BF3D676D
:10075000C7F8608008BF3D671020FFF7E7FC1B4922
:1007600028F0030020F0F8602140014325F0FC5000
:1007700004F0FC52104314F0804F08BF20F0804278
:1007800006D0134A20F48000224041F48001024345
:1007900014F4006F0BD14FF400403B6D13F0400F89
:1007A00001D1401EF9D121F4006122F400623966C2
:1007B0003A67BDE8F0411020FFF7B8BC00E00F40F9
:1007C0000000FF708FDFFF7F302000800300C00734
:1007D0000000404002E008C8121F08C1002AFAD1F8
:1007E00070477047002001E001C1121F002AFBD1B1
:1007F0007047000007080809090A0A0B0B0C0C0CCB
:100800000D0D0D0E0E0E0E0E0F0F0F0F0F0F0F0F03
:100810000F0F0F0E0E0E0E0E0D0D0D0C0C0C0B0B04
:100820000A0A09090808070707060605050404035C
:1008300003030202020101010101000000000000A7
:100840000000000000010101010102020203030394
:100850000404050506060707B8010000DC000000D7
:10086000EE010000F70000000B020000060100008E
:100870004B02000026010000930200004A01000024
:10088000BA0200005D0100000F03000088010000B3
:10089000C4000000AF000000A500000093000000AD
:1008A00082000000C408000000000020B801000021
:1008B0004006000030090000B801002000040000DC
:1008C000E4070000814C66414203B80C45444243B2
:1008D0004267656465676514881A454267426763C5
:1008E00064767778797A6162617763646566674177
:1008F000424344123012626564666567664167422E
:10090000414342656664655A02040A15040C091ADB
:1009100014DA08100A3D0750A94029040A21095099
:10092000092274092E24092E049A0108720B000072
:0400000500000101F5
:00000001FF
